{
  "_format": "hh-sol-artifact-1",
  "contractName": "BananaController",
  "sourceName": "contracts/BananaController.sol",
  "abi": [
    {
      "inputs": [
        {
          "internalType": "address",
          "name": "_owner",
          "type": "address"
        },
        {
          "internalType": "uint256",
          "name": "_commissionPercentage",
          "type": "uint256"
        },
        {
          "internalType": "address",
          "name": "_commissionRecepient",
          "type": "address"
        }
      ],
      "stateMutability": "nonpayable",
      "type": "constructor"
    },
    {
      "anonymous": false,
      "inputs": [
        {
          "indexed": true,
          "internalType": "address",
          "name": "donor",
          "type": "address"
        },
        {
          "indexed": true,
          "internalType": "address",
          "name": "recipient",
          "type": "address"
        },
        {
          "indexed": true,
          "internalType": "contract IERC20",
          "name": "erc20TokenAddress",
          "type": "address"
        },
        {
          "indexed": false,
          "internalType": "uint256",
          "name": "netDonation",
          "type": "uint256"
        },
        {
          "indexed": false,
          "internalType": "uint256",
          "name": "commission",
          "type": "uint256"
        },
        {
          "indexed": false,
          "internalType": "string",
          "name": "donorName",
          "type": "string"
        },
        {
          "indexed": false,
          "internalType": "string",
          "name": "message",
          "type": "string"
        }
      ],
      "name": "Donate",
      "type": "event"
    },
    {
      "anonymous": false,
      "inputs": [
        {
          "indexed": true,
          "internalType": "address",
          "name": "streamer",
          "type": "address"
        }
      ],
      "name": "RegisterAsStreamer",
      "type": "event"
    },
    {
      "anonymous": false,
      "inputs": [
        {
          "indexed": true,
          "internalType": "address",
          "name": "streamer",
          "type": "address"
        }
      ],
      "name": "UnregisterAsStreamer",
      "type": "event"
    },
    {
      "inputs": [],
      "name": "commissionPercentage",
      "outputs": [
        {
          "internalType": "uint256",
          "name": "",
          "type": "uint256"
        }
      ],
      "stateMutability": "view",
      "type": "function"
    },
    {
      "inputs": [],
      "name": "commissionRecepient",
      "outputs": [
        {
          "internalType": "address",
          "name": "",
          "type": "address"
        }
      ],
      "stateMutability": "view",
      "type": "function"
    },
    {
      "inputs": [
        {
          "internalType": "address",
          "name": "recipient",
          "type": "address"
        },
        {
          "internalType": "contract IERC20",
          "name": "erc20TokenAddress",
          "type": "address"
        },
        {
          "internalType": "uint256",
          "name": "value",
          "type": "uint256"
        },
        {
          "internalType": "string",
          "name": "donor",
          "type": "string"
        },
        {
          "internalType": "string",
          "name": "message",
          "type": "string"
        }
      ],
      "name": "donate",
      "outputs": [],
      "stateMutability": "nonpayable",
      "type": "function"
    },
    {
      "inputs": [
        {
          "internalType": "address",
          "name": "recipient",
          "type": "address"
        },
        {
          "internalType": "contract IERC20",
          "name": "erc20TokenAddress",
          "type": "address"
        },
        {
          "internalType": "uint256",
          "name": "value",
          "type": "uint256"
        },
        {
          "internalType": "string",
          "name": "donor",
          "type": "string"
        },
        {
          "internalType": "string",
          "name": "message",
          "type": "string"
        }
      ],
      "name": "fakeDonate",
      "outputs": [],
      "stateMutability": "nonpayable",
      "type": "function"
    },
    {
      "inputs": [
        {
          "internalType": "address",
          "name": "",
          "type": "address"
        }
      ],
      "name": "isStreamer",
      "outputs": [
        {
          "internalType": "bool",
          "name": "",
          "type": "bool"
        }
      ],
      "stateMutability": "view",
      "type": "function"
    },
    {
      "inputs": [],
      "name": "owner",
      "outputs": [
        {
          "internalType": "address",
          "name": "",
          "type": "address"
        }
      ],
      "stateMutability": "view",
      "type": "function"
    },
    {
      "inputs": [],
      "name": "registerAsStreamer",
      "outputs": [],
      "stateMutability": "nonpayable",
      "type": "function"
    },
    {
      "inputs": [
        {
          "internalType": "uint256",
          "name": "_commissionPercentage",
          "type": "uint256"
        }
      ],
      "name": "setCommissionPercentage",
      "outputs": [],
      "stateMutability": "nonpayable",
      "type": "function"
    },
    {
      "inputs": [
        {
          "internalType": "address",
          "name": "_commissionRecepient",
          "type": "address"
        }
      ],
      "name": "setCommissionRecepient",
      "outputs": [],
      "stateMutability": "nonpayable",
      "type": "function"
    },
    {
      "inputs": [
        {
          "internalType": "contract IERC20",
          "name": "erc20TokenAddress",
          "type": "address"
        },
        {
          "internalType": "bool",
          "name": "isSupported",
          "type": "bool"
        }
      ],
      "name": "setErc20Token",
      "outputs": [],
      "stateMutability": "nonpayable",
      "type": "function"
    },
    {
      "inputs": [
        {
          "internalType": "contract IERC20",
          "name": "",
          "type": "address"
        }
      ],
      "name": "supportedErc20",
      "outputs": [
        {
          "internalType": "bool",
          "name": "",
          "type": "bool"
        }
      ],
      "stateMutability": "view",
      "type": "function"
    },
    {
      "inputs": [],
      "name": "unregisterAsStreamer",
      "outputs": [],
      "stateMutability": "nonpayable",
      "type": "function"
    }
  ],
  "bytecode": "0x608060405234801561001057600080fd5b5060405161099838038061099883398101604081905261002f91610082565b600080546001600160a01b039485166001600160a01b031991821617909155600192909255600280549190931691161790556100be565b80516001600160a01b038116811461007d57600080fd5b919050565b60008060006060848603121561009757600080fd5b6100a084610066565b9250602084015191506100b560408501610066565b90509250925092565b6108cb806100cd6000396000f3fe608060405234801561001057600080fd5b50600436106100b45760003560e01c8063c7184bb511610071578063c7184bb51461013f578063c81331c614610172578063d575fe6414610195578063d6aef61f146101ac578063e9f776fd146101bf578063eaebcb1c146101c757600080fd5b806339b87c8f146100b957806345673e40146100ce5780635abebe72146100e15780638516f474146100e95780638da5cb5b146100fc578063a4a886f81461012c575b600080fd5b6100cc6100c73660046105bc565b6101da565b005b6100cc6100dc366004610690565b6101f6565b6100cc61045e565b6100cc6100f7366004610723565b61049d565b60005461010f906001600160a01b031681565b6040516001600160a01b0390911681526020015b60405180910390f35b6100cc61013a366004610755565b6104d6565b61016261014d366004610723565b60046020526000908152604090205460ff1681565b6040519015158152602001610123565b610162610180366004610723565b60036020526000908152604090205460ff1681565b61019e60015481565b604051908152602001610123565b6100cc6101ba366004610690565b610518565b6100cc61057a565b60025461010f906001600160a01b031681565b6000546001600160a01b031633146101f157600080fd5b600155565b6001600160a01b03841660009081526004602052604090205460ff1661026d5760405162461bcd60e51b815260206004820152602160248201527f657263323020746f6b656e206e6565647320746f20626520737570706f7274656044820152601960fa1b60648201526084015b60405180910390fd5b6001600160a01b03851660009081526003602052604090205460ff166102d55760405162461bcd60e51b815260206004820181905260248201527f726563697069656e74206e6565647320746f20626520612073747265616d65726044820152606401610264565b6000612710600154856102e891906107a4565b6102f291906107c1565b9050600061030082866107e3565b6002546040516323b872dd60e01b81523360048201526001600160a01b039182166024820152604481018590529192508716906323b872dd906064016020604051808303816000875af115801561035b573d6000803e3d6000fd5b505050506040513d601f19601f8201168201806040525081019061037f91906107f6565b506040516323b872dd60e01b81523360048201526001600160a01b038881166024830152604482018390528716906323b872dd906064016020604051808303816000875af11580156103d5573d6000803e3d6000fd5b505050506040513d601f19601f820116820180604052508101906103f991906107f6565b50856001600160a01b0316876001600160a01b0316336001600160a01b03167f267eb28f7ade710aa5602c6e6ca44f370214067a53817b18fda76b1055a4ffe38486898960405161044d9493929190610859565b60405180910390a450505050505050565b33600081815260036020526040808220805460ff19169055517fff3fd4f96640b1acb29acb12011e29fdabbbb52ba119817390bcef1c506aed219190a2565b6000546001600160a01b031633146104b457600080fd5b600280546001600160a01b0319166001600160a01b0392909216919091179055565b6000546001600160a01b031633146104ed57600080fd5b6001600160a01b03919091166000908152600460205260409020805460ff1916911515919091179055565b836001600160a01b0316856001600160a01b0316336001600160a01b03167f267eb28f7ade710aa5602c6e6ca44f370214067a53817b18fda76b1055a4ffe38687878760405161056b9493929190610859565b60405180910390a45050505050565b33600081815260036020526040808220805460ff19166001179055517fe0c1ab470e31bb758a1458231315b224f39b2584ba550f15152058a78cabd3279190a2565b6000602082840312156105ce57600080fd5b5035919050565b6001600160a01b03811681146105ea57600080fd5b50565b634e487b7160e01b600052604160045260246000fd5b600082601f83011261061457600080fd5b813567ffffffffffffffff8082111561062f5761062f6105ed565b604051601f8301601f19908116603f01168101908282118183101715610657576106576105ed565b8160405283815286602085880101111561067057600080fd5b836020870160208301376000602085830101528094505050505092915050565b600080600080600060a086880312156106a857600080fd5b85356106b3816105d5565b945060208601356106c3816105d5565b935060408601359250606086013567ffffffffffffffff808211156106e757600080fd5b6106f389838a01610603565b9350608088013591508082111561070957600080fd5b5061071688828901610603565b9150509295509295909350565b60006020828403121561073557600080fd5b8135610740816105d5565b9392505050565b80151581146105ea57600080fd5b6000806040838503121561076857600080fd5b8235610773816105d5565b9150602083013561078381610747565b809150509250929050565b634e487b7160e01b600052601160045260246000fd5b80820281158282048414176107bb576107bb61078e565b92915050565b6000826107de57634e487b7160e01b600052601260045260246000fd5b500490565b818103818111156107bb576107bb61078e565b60006020828403121561080857600080fd5b815161074081610747565b6000815180845260005b818110156108395760208185018101518683018201520161081d565b506000602082860101526020601f19601f83011685010191505092915050565b8481528360208201526080604082015260006108786080830185610813565b828103606084015261088a8185610813565b97965050505050505056fea2646970667358221220a5e0bd6e79745728bd9288421d4f5c6ac39980275a846ca52d90edf23995235364736f6c63430008180033",
  "linkReferences": {},
  "deployedLinkReferences": {}
}