{
  "_format": "hh-sol-artifact-1",
  "contractName": "BananaController",
  "sourceName": "contracts/BananaController.sol",
  "abi": [
    {
      "inputs": [
        {
          "internalType": "address",
          "name": "_owner",
          "type": "address"
        },
        {
          "internalType": "uint256",
          "name": "_commissionPercentage",
          "type": "uint256"
        },
        {
          "internalType": "address",
          "name": "_commissionRecepient",
          "type": "address"
        }
      ],
      "stateMutability": "nonpayable",
      "type": "constructor"
    },
    {
      "anonymous": false,
      "inputs": [
        {
          "indexed": true,
          "internalType": "address",
          "name": "donar",
          "type": "address"
        },
        {
          "indexed": true,
          "internalType": "address",
          "name": "recipient",
          "type": "address"
        },
        {
          "indexed": true,
          "internalType": "contract IERC20",
          "name": "erc20TokenAddress",
          "type": "address"
        },
        {
          "indexed": false,
          "internalType": "uint256",
          "name": "netDonation",
          "type": "uint256"
        },
        {
          "indexed": false,
          "internalType": "uint256",
          "name": "commission",
          "type": "uint256"
        }
      ],
      "name": "Donate",
      "type": "event"
    },
    {
      "anonymous": false,
      "inputs": [
        {
          "indexed": true,
          "internalType": "address",
          "name": "streamer",
          "type": "address"
        }
      ],
      "name": "RegisterAsStreamer",
      "type": "event"
    },
    {
      "anonymous": false,
      "inputs": [
        {
          "indexed": true,
          "internalType": "address",
          "name": "streamer",
          "type": "address"
        }
      ],
      "name": "UnregisterAsStreamer",
      "type": "event"
    },
    {
      "inputs": [],
      "name": "commissionPercentage",
      "outputs": [
        {
          "internalType": "uint256",
          "name": "",
          "type": "uint256"
        }
      ],
      "stateMutability": "view",
      "type": "function"
    },
    {
      "inputs": [],
      "name": "commissionRecepient",
      "outputs": [
        {
          "internalType": "address",
          "name": "",
          "type": "address"
        }
      ],
      "stateMutability": "view",
      "type": "function"
    },
    {
      "inputs": [
        {
          "internalType": "address",
          "name": "recipient",
          "type": "address"
        },
        {
          "internalType": "contract IERC20",
          "name": "erc20TokenAddress",
          "type": "address"
        },
        {
          "internalType": "uint256",
          "name": "value",
          "type": "uint256"
        }
      ],
      "name": "donate",
      "outputs": [],
      "stateMutability": "nonpayable",
      "type": "function"
    },
    {
      "inputs": [
        {
          "internalType": "address",
          "name": "",
          "type": "address"
        }
      ],
      "name": "isStreamer",
      "outputs": [
        {
          "internalType": "bool",
          "name": "",
          "type": "bool"
        }
      ],
      "stateMutability": "view",
      "type": "function"
    },
    {
      "inputs": [],
      "name": "owner",
      "outputs": [
        {
          "internalType": "address",
          "name": "",
          "type": "address"
        }
      ],
      "stateMutability": "view",
      "type": "function"
    },
    {
      "inputs": [],
      "name": "registerAsStreamer",
      "outputs": [],
      "stateMutability": "nonpayable",
      "type": "function"
    },
    {
      "inputs": [
        {
          "internalType": "uint256",
          "name": "_commissionPercentage",
          "type": "uint256"
        }
      ],
      "name": "setCommissionPercentage",
      "outputs": [],
      "stateMutability": "nonpayable",
      "type": "function"
    },
    {
      "inputs": [
        {
          "internalType": "address",
          "name": "_commissionRecepient",
          "type": "address"
        }
      ],
      "name": "setCommissionRecepient",
      "outputs": [],
      "stateMutability": "nonpayable",
      "type": "function"
    },
    {
      "inputs": [
        {
          "internalType": "contract IERC20",
          "name": "erc20TokenAddress",
          "type": "address"
        },
        {
          "internalType": "bool",
          "name": "isSupported",
          "type": "bool"
        }
      ],
      "name": "setErc20Token",
      "outputs": [],
      "stateMutability": "nonpayable",
      "type": "function"
    },
    {
      "inputs": [
        {
          "internalType": "contract IERC20",
          "name": "",
          "type": "address"
        }
      ],
      "name": "supportedErc20",
      "outputs": [
        {
          "internalType": "bool",
          "name": "",
          "type": "bool"
        }
      ],
      "stateMutability": "view",
      "type": "function"
    },
    {
      "inputs": [],
      "name": "unregisterAsStreamer",
      "outputs": [],
      "stateMutability": "nonpayable",
      "type": "function"
    }
  ],
  "bytecode": "0x60806040523480156200001157600080fd5b5060405162000fc338038062000fc383398181016040528101906200003791906200016d565b826000806101000a81548173ffffffffffffffffffffffffffffffffffffffff021916908373ffffffffffffffffffffffffffffffffffffffff1602179055508160018190555080600260006101000a81548173ffffffffffffffffffffffffffffffffffffffff021916908373ffffffffffffffffffffffffffffffffffffffff160217905550505050620001c9565b600080fd5b600073ffffffffffffffffffffffffffffffffffffffff82169050919050565b6000620000fa82620000cd565b9050919050565b6200010c81620000ed565b81146200011857600080fd5b50565b6000815190506200012c8162000101565b92915050565b6000819050919050565b620001478162000132565b81146200015357600080fd5b50565b60008151905062000167816200013c565b92915050565b600080600060608486031215620001895762000188620000c8565b5b600062000199868287016200011b565b9350506020620001ac8682870162000156565b9250506040620001bf868287016200011b565b9150509250925092565b610dea80620001d96000396000f3fe608060405234801561001057600080fd5b50600436106100a95760003560e01c8063a4a886f811610071578063a4a886f81461012a578063c7184bb514610146578063c81331c614610176578063d575fe64146101a6578063e9f776fd146101c4578063eaebcb1c146101ce576100a9565b8063386bc05a146100ae57806339b87c8f146100ca5780635abebe72146100e65780638516f474146100f05780638da5cb5b1461010c575b600080fd5b6100c860048036038101906100c3919061092e565b6101ec565b005b6100e460048036038101906100df9190610981565b6104dc565b005b6100ee61053e565b005b61010a600480360381019061010591906109ae565b6105db565b005b610114610677565b60405161012191906109ea565b60405180910390f35b610144600480360381019061013f9190610a3d565b61069b565b005b610160600480360381019061015b9190610a7d565b61074e565b60405161016d9190610ab9565b60405180910390f35b610190600480360381019061018b91906109ae565b61076e565b60405161019d9190610ab9565b60405180910390f35b6101ae61078e565b6040516101bb9190610ae3565b60405180910390f35b6101cc610794565b005b6101d6610831565b6040516101e391906109ea565b60405180910390f35b600460008373ffffffffffffffffffffffffffffffffffffffff1673ffffffffffffffffffffffffffffffffffffffff16815260200190815260200160002060009054906101000a900460ff16610278576040517f08c379a000000000000000000000000000000000000000000000000000000000815260040161026f90610b81565b60405180910390fd5b600360008473ffffffffffffffffffffffffffffffffffffffff1673ffffffffffffffffffffffffffffffffffffffff16815260200190815260200160002060009054906101000a900460ff16610304576040517f08c379a00000000000000000000000000000000000000000000000000000000081526004016102fb90610bed565b60405180910390fd5b6000612710600154836103179190610c3c565b6103219190610cad565b9050600081836103319190610cde565b90508373ffffffffffffffffffffffffffffffffffffffff166323b872dd33600260009054906101000a900473ffffffffffffffffffffffffffffffffffffffff16856040518463ffffffff1660e01b815260040161039293929190610d12565b6020604051808303816000875af11580156103b1573d6000803e3d6000fd5b505050506040513d601f19601f820116820180604052508101906103d59190610d5e565b508373ffffffffffffffffffffffffffffffffffffffff166323b872dd3387846040518463ffffffff1660e01b815260040161041393929190610d12565b6020604051808303816000875af1158015610432573d6000803e3d6000fd5b505050506040513d601f19601f820116820180604052508101906104569190610d5e565b508373ffffffffffffffffffffffffffffffffffffffff168573ffffffffffffffffffffffffffffffffffffffff163373ffffffffffffffffffffffffffffffffffffffff167f2265b0077e317877df2fc9588b0a5628fecea3b003245836a5427a81bf28e7fb84866040516104cd929190610d8b565b60405180910390a45050505050565b60008054906101000a900473ffffffffffffffffffffffffffffffffffffffff1673ffffffffffffffffffffffffffffffffffffffff163373ffffffffffffffffffffffffffffffffffffffff161461053457600080fd5b8060018190555050565b6000600360003373ffffffffffffffffffffffffffffffffffffffff1673ffffffffffffffffffffffffffffffffffffffff16815260200190815260200160002060006101000a81548160ff0219169083151502179055503373ffffffffffffffffffffffffffffffffffffffff167fff3fd4f96640b1acb29acb12011e29fdabbbb52ba119817390bcef1c506aed2160405160405180910390a2565b60008054906101000a900473ffffffffffffffffffffffffffffffffffffffff1673ffffffffffffffffffffffffffffffffffffffff163373ffffffffffffffffffffffffffffffffffffffff161461063357600080fd5b80600260006101000a81548173ffffffffffffffffffffffffffffffffffffffff021916908373ffffffffffffffffffffffffffffffffffffffff16021790555050565b60008054906101000a900473ffffffffffffffffffffffffffffffffffffffff1681565b60008054906101000a900473ffffffffffffffffffffffffffffffffffffffff1673ffffffffffffffffffffffffffffffffffffffff163373ffffffffffffffffffffffffffffffffffffffff16146106f357600080fd5b80600460008473ffffffffffffffffffffffffffffffffffffffff1673ffffffffffffffffffffffffffffffffffffffff16815260200190815260200160002060006101000a81548160ff0219169083151502179055505050565b60046020528060005260406000206000915054906101000a900460ff1681565b60036020528060005260406000206000915054906101000a900460ff1681565b60015481565b6001600360003373ffffffffffffffffffffffffffffffffffffffff1673ffffffffffffffffffffffffffffffffffffffff16815260200190815260200160002060006101000a81548160ff0219169083151502179055503373ffffffffffffffffffffffffffffffffffffffff167fe0c1ab470e31bb758a1458231315b224f39b2584ba550f15152058a78cabd32760405160405180910390a2565b600260009054906101000a900473ffffffffffffffffffffffffffffffffffffffff1681565b600080fd5b600073ffffffffffffffffffffffffffffffffffffffff82169050919050565b60006108878261085c565b9050919050565b6108978161087c565b81146108a257600080fd5b50565b6000813590506108b48161088e565b92915050565b60006108c58261087c565b9050919050565b6108d5816108ba565b81146108e057600080fd5b50565b6000813590506108f2816108cc565b92915050565b6000819050919050565b61090b816108f8565b811461091657600080fd5b50565b60008135905061092881610902565b92915050565b60008060006060848603121561094757610946610857565b5b6000610955868287016108a5565b9350506020610966868287016108e3565b925050604061097786828701610919565b9150509250925092565b60006020828403121561099757610996610857565b5b60006109a584828501610919565b91505092915050565b6000602082840312156109c4576109c3610857565b5b60006109d2848285016108a5565b91505092915050565b6109e48161087c565b82525050565b60006020820190506109ff60008301846109db565b92915050565b60008115159050919050565b610a1a81610a05565b8114610a2557600080fd5b50565b600081359050610a3781610a11565b92915050565b60008060408385031215610a5457610a53610857565b5b6000610a62858286016108e3565b9250506020610a7385828601610a28565b9150509250929050565b600060208284031215610a9357610a92610857565b5b6000610aa1848285016108e3565b91505092915050565b610ab381610a05565b82525050565b6000602082019050610ace6000830184610aaa565b92915050565b610add816108f8565b82525050565b6000602082019050610af86000830184610ad4565b92915050565b600082825260208201905092915050565b7f657263323020746f6b656e206e6565647320746f20626520737570706f72746560008201527f6400000000000000000000000000000000000000000000000000000000000000602082015250565b6000610b6b602183610afe565b9150610b7682610b0f565b604082019050919050565b60006020820190508181036000830152610b9a81610b5e565b9050919050565b7f726563697069656e74206e6565647320746f20626520612073747265616d6572600082015250565b6000610bd7602083610afe565b9150610be282610ba1565b602082019050919050565b60006020820190508181036000830152610c0681610bca565b9050919050565b7f4e487b7100000000000000000000000000000000000000000000000000000000600052601160045260246000fd5b6000610c47826108f8565b9150610c52836108f8565b9250828202610c60816108f8565b91508282048414831517610c7757610c76610c0d565b5b5092915050565b7f4e487b7100000000000000000000000000000000000000000000000000000000600052601260045260246000fd5b6000610cb8826108f8565b9150610cc3836108f8565b925082610cd357610cd2610c7e565b5b828204905092915050565b6000610ce9826108f8565b9150610cf4836108f8565b9250828203905081811115610d0c57610d0b610c0d565b5b92915050565b6000606082019050610d2760008301866109db565b610d3460208301856109db565b610d416040830184610ad4565b949350505050565b600081519050610d5881610a11565b92915050565b600060208284031215610d7457610d73610857565b5b6000610d8284828501610d49565b91505092915050565b6000604082019050610da06000830185610ad4565b610dad6020830184610ad4565b939250505056fea26469706673582212206aafc1efaace12bc285f4ba9edac2b663154fed2f16db5c9a0282a958cf31dab64736f6c63430008180033",
  "linkReferences": {},
  "deployedLinkReferences": {}
}